:1000000019C033C032C031C030C02FC02EC02DC087
:100010002CC02BC02AC029C028C027C026C025C09C
:10002000AEC323C022C021C020C01FC01EC01DC03F
:100030001CC01BC011241FBECFEFD2E0DEBFCDBF5E
:1000400011E0A0E0B1E0E4E4FCE002C005900D9214
:10005000AC37B107D9F721E0ACE7B1E001C01D92A0
:10006000AF37B207E1F7B5D0EBC5CACF44E68FEFA3
:100070009FEF20917A00206420937A0020917A00EB
:1000800026FDFCCF209178003091790028173907A0
:1000900021F440E280E090E007C0809178009091E8
:1000A0007900415031F7F5CF20917A0020642093F8
:1000B0007A0020917A0026FDFCCF209178003091C3
:1000C0007900820F931F415079F7089500005A9AE2
:1000D0009BB1807F9F70892B8BB900C000C05A985C
:1000E00000C00895CF93C82FF1DF8C2F8295807FB9
:1000F000EDDF80E18A95F1F700C0CF9108955B981C
:1001000084E68A95F1F75A9A87E893E10197F1F727
:1001100000C0000080E3DADF85EA9EE00197F1F796
:1001200000C0000080E3D2DF85EA9EE00197F1F78E
:1001300000C0000080E3CADF85EA9EE00197F1F786
:1001400000C0000088E2CEDF89EF90E00197F1F770
:1001500000C0000088E2C6DF89EF90E00197F1F768
:1001600000C0000088E0BEDF89EF90E00197F1F762
:1001700000C000008CE0B6DF89EF90E00197F1F756
:1001800000C0000086E0AEDF83EF91E00197F1F759
:1001900000C000005B9A08955B989AE19A95F1F788
:1001A00000C0A0DF5B9A80E092E00197F1F70000C9
:1001B00008951F93CF93DF93EC0110E0899188237A
:1001C00021F090DF1F5F1830C9F7DF91CF911F91A9
:1001D0000895CF93DF93CDB7DEB761970FB6F8944C
:1001E000DEBF0FBECDBF8FE784B917B88FEF8AB9D6
:1001F0001BB8589A83E780937E0184E880937A0045
:100200008EE480937C008FE380937E0014BC85E0B5
:1002100085BD81E080936E0072DF789427DF8D3496
:100220009D4118F08AE591E0C4DF20DF8D349D41C7
:10023000E0F765DF81E0B0DF83E691E0BADF80ECD4
:10024000ABDF8CE691E0B5DFFFE32DE083E0F1501A
:1002500020408040E1F700C00000D12C98ED998348
:10026000E3EDEA83BCEB2B2E1CE4312E00E8A02E3C
:100270000EE3B02EE7E0ED1508F4D5C0F7E0DF1689
:1002800009F459C0ED2CF12CF701ED5DFE4F808192
:1002900085B984B9F701E45EFE4F8081882361F05F
:1002A000806480937C0089EF90E00197F1F700C0B3
:1002B0000000DCDE8C0102C000EE1FE780E48093CA
:1002C0007C00E9EFF0E03197F1F700C00000CEDEEE
:1002D0004C0114B815B8803FFFE39F0718F0805F0A
:1002E0009F4304C080EF9FE38819990990937D0193
:1002F00080937C010815190509F480C0B40180E0E1
:1003000090E089D3F701EE0FFF1FEE0FFF1FE050C3
:10031000FF4F20813181428153812FD42B013C0139
:10032000B8016819790980E090E075D39B01AC01B0
:10033000C301B20161C081E485B984B980937C00B6
:1003400089EF90E00197F1F700C000008FDE7C019B
:1003500082E480937C00E9EFF0E03197F1F700C090
:10036000000084DE8C0180E480937C0089EF90E0C3
:100370000197F1F700C0000079DE4C0114B815B800
:1003800090EF89169FE3990620F0C401805F9F4398
:1003900004C080EF9FE38819990990937D018093B1
:1003A0007C01E818F908B70180E090E034D320E040
:1003B00030E049EC52E49BD22B013C0108191909A9
:1003C000B80180E090E027D320E030E04CE553E432
:1003D0008ED29B01AC01C301B20121D22B013C01A1
:1003E00020E030E0A9017FD2882341F0B40180E011
:1003F00090E011D3A30192017AD204C068ED73EDAD
:100400008CEB9CE420917C0130917D01A216B30617
:1004100020F469817A81C1019501D39469837A833B
:100420001C01590127CF20E030E040E251E469810E
:100430007A81C10158D287FF0FC020E030E040E24E
:1004400051E469817A81C10198D3688779878A8765
:100450009B878AE090E008C099819887EA81E987C4
:100460002A863B8681E090E09C838B8396E09F8385
:10047000412C512C32014394C12CD12C7601F0E84F
:100480008F2EF6E99F2EF8E1AF2EFBE4BF2E8AE215
:1004900091E09E838D83CC86DD86EE86FF86840187
:1004A000A98AB88AED81FE81A191B191FE83ED8385
:1004B000A30192019DD16B017C01AFD228853985C2
:1004C0004A855B85ABD14B015C0120E030E0A9019E
:1004D0000AD287FF04C0B7FAB094B7F8B094980175
:1004E00049895889C501B401FED187FD07C0CC8474
:1004F000DD84EE84FF844801A988B8888D819E81BF
:100500008A55914041F6AAE0B0E0A301920170D172
:100510002B013C01FF81F150FF83F111B8CF20E89E
:1005200036E948E15BE469817A81C101DCD187FF6A
:1005300008C183E780937E0190E4C91692E4D9064E
:100540009FE0E906F10480F0C701B60120E432E43F
:100550004FE050E02BD1690120EA36E841E050E05D
:1005600025D129011DE428C0E8EECE16E3E0DE0621
:10057000E104F10480F0C701B60128EE33E040E069
:1005800050E014D1690124E630E040E050E00ED1A3
:1005900029011BE411C08B819C81019719F4412C26
:1005A000512C09C0C701B6012AE030E040E050E01C
:1005B000FDD069012B0112E582E0EEDD80E292DDE3
:1005C000E12CF12C03E07724739474E6872E912CB0
:1005D000A12CB12CC701B601A5019401E7D0622E70
:1005E0006B017C01C501B4012AE030E040E050E03D
:1005F000DDD049015A01611002C0711005C080E3CD
:10060000860D70DD712C04C080E26CDD772473945C
:10061000015001F7812F66DD4114510419F080E388
:10062000840D01C080E25EDD80ECB6DD20E030E0CC
:1006300040E251E469817A81C10155D120E030E086
:1006400048EC52E469817A8187FF0AC0C10195D2E2
:10065000B6D1862E772E682E592E65E0A62E1EC0A6
:10066000C10141D187FF10C020E030E040E251E4F9
:1006700069817A81C10181D2A2D1862E772E682E1E
:10068000592E56E0A52E0AC069817A81C10197D101
:10069000862E772E682E592E47E0A42E1E821D82AC
:1006A000912CBB24B39430E4C32E32E4D32E3FE02C
:1006B000E32EF12C0A2D10E0015011094D80A410F9
:1006C00002C08CE20FDD682D772D862D952DA701B8
:1006D00096016CD0322E862E772E682E592EC701A9
:1006E000B6012AE030E040E050E060D069017A01D4
:1006F000311007C0BB2029F0ED81FE81E017F10722
:1007000064F0BB24B394B90CF3E080E3F91508F06E
:10071000830DE8DC9B2CB12C0BC08B819C81019755
:1007200019F091E0941510F480E2DCDCBB24B39462
:10073000ED81FE813196FE83ED83379709F0BECFC0
:100740000AC080917E018F3609F4D9DC81E024DD76
:1007500085E791E02EDD87EA91E60197F1F700C089
:100760000000D12C98ED9983E3EDEA838CEB282EE1
:100770009CE4392E20E8A22E2EE3B22E7FCD1F92CC
:100780000F920FB60F9211248F9380917E018823D0
:1007900031F080917E01815080937E0101C0589894
:1007A0008F910F900FBE0F901F901895A1E21A2EF7
:1007B000AA1BBB1BFD010DC0AA1FBB1FEE1FFF1F05
:1007C000A217B307E407F50720F0A21BB30BE40B55
:1007D000F50B661F771F881F991F1A9469F760959C
:1007E0007095809590959B01AC01BD01CF01089556
:1007F00009D0A59F900DB49F900DA49F800D911DD1
:1008000011240895A29FB001B39FC001A39F01D0FE
:10081000B29F700D811D1124911D08955058BB2762
:10082000AA270ED070C161D130F066D120F031F42A
:100830009F3F11F41EF456C10EF4E095E7FB4CC146
:10084000E92F72D180F3BA176207730784079507FF
:1008500018F071F49EF58AC10EF4E0950B2EBA2FB4
:10086000A02D0B01B90190010C01CA01A0011124B6
:10087000FF27591B99F0593F50F4503E68F11A1662
:10088000F040A22F232F342F4427585FF3CF4695F3
:1008900037952795A795F0405395C9F77EF41F1615
:1008A000BA0B620B730B840BBAF09150A1F0FF0FDF
:1008B000BB1F661F771F881FC2F70EC0BA0F621FCB
:1008C000731F841F48F4879577956795B795F795BB
:1008D0009E3F08F0B3CF9395880F08F09927EE0F4D
:1008E000979587950895D4D008F481E008950CD0A9
:1008F0000AC102D140F0F9D030F021F45F3F19F085
:10090000EBC0511134C1EEC00FD198F39923C9F354
:100910005523B1F3951B550BBB27AA276217730705
:10092000840738F09F5F5F4F220F331F441FAA1FB9
:10093000A9F333D00E2E3AF0E0E830D09150504079
:10094000E695001CCAF729D0FE2F27D0660F771F27
:10095000881FBB1F261737074807AB07B0E809F009
:10096000BB0B802DBF01FF2793585F4F2AF09E3F9E
:10097000510568F0B1C0FBC05F3FECF3983EDCF37B
:10098000869577956795B795F7959F5FC9F7880F17
:10099000911D9695879597F90895E1E0660F771F69
:1009A000881FBB1F621773078407BA0720F0621BFA
:1009B000730B840BBA0BEE1F88F7E0950895BCD03B
:1009C00088F09F5790F0B92F9927B751A0F0D1F038
:1009D000660F771F881F991F1AF0BA95C9F712C0C2
:1009E000B13081F0C3D0B1E00895C0C0672F782F37
:1009F0008827B85F39F0B93FCCF38695779567952E
:100A0000B395D9F73EF490958095709561957F4F99
:100A10008F4F9F4F0895E89409C097FB3EF490953F
:100A20008095709561957F4F8F4F9F4F9923A9F0C7
:100A3000F92F96E9BB279395F69587957795679556
:100A4000B795F111F8CFFAF4BB0F11F460FF1BC09A
:100A50006F5F7F4F8F4F9F4F16C0882311F096E92D
:100A600011C0772321F09EE8872F762F05C06623DB
:100A700071F096E8862F70E060E02AF09A95660F94
:100A8000771F881FDAF7880F9695879597F908954D
:100A9000990F0008550FAA0BE0E8FEEF161617068F
:100AA000E807F907C0F012161306E407F50798F0F7
:100AB000621B730B840B950B39F40A2661F0232B10
:100AC000242B252B21F408950A2609F4A140A6958C
:100AD0008FEF811D811D089597F99F6780E870E071
:100AE00060E008959FEF80EC089500240A941616A4
:100AF000170618060906089500240A94121613060C
:100B0000140605060895092E0394000C11F4882399
:100B100052F0BB0F40F4BF2B11F460FF04C06F5FB5
:100B20007F4F8F4F9F4F089557FD9058440F551F8B
:100B300059F05F3F71F04795880F97FB991F61F05F
:100B40009F3F79F087950895121613061406551FD6
:100B5000F2CF4695F1DF08C0161617061806991F42
:100B6000F1CF86957105610508940895E894BB2737
:100B700066277727CB0197F908950BD0C4CFB5DF4F
:100B800028F0BADF18F0952309F0A6CFABCF1124D7
:100B9000EECFCADFA0F3959FD1F3950F50E0551F1C
:100BA000629FF001729FBB27F00DB11D639FAA27C2
:100BB000F00DB11DAA1F649F6627B00DA11D661F11
:100BC000829F2227B00DA11D621F739FB00DA11D32
:100BD000621F839FA00D611D221F749F3327A00DEC
:100BE000611D231F849F600D211D822F762F6A2F88
:100BF00011249F5750408AF0E1F088234AF0EE0F0D
:100C0000FF1FBB1F661F771F881F91505040A9F719
:100C10009E3F510570F060CFAACF5F3FECF3983E46
:100C2000DCF3869577956795B795F795E7959F5F80
:100C3000C1F7FE2B880F911D9695879597F908951A
:040C4000F894FFCF56
:100C44008062F44900F0A048005237470030D44590
:100C540000007A4400005C430000C942000005041F
:100C6400030201201008040240010A000B000C00DA
:100C74000D000F00100012001400160018001B00D5
:100C84001E002100240027002B002F003300380011
:100C94003E0044004B0052005B004C6F77204261E1
:100CA4007474004F686D6D65746572002F584C2024
:0C0CB400323031380020202D2D2D2D0075
:00000001FF
